{"contracts/PostManager.sol":{"PostManager":{"abi":[{"anonymous":false,"inputs":[{"indexed":true,"internalType":"uint256","name":"id","type":"uint256"},{"indexed":true,"internalType":"address","name":"author","type":"address"},{"indexed":false,"internalType":"string","name":"cid","type":"string"}],"name":"PostCreated","type":"event"},{"inputs":[{"internalType":"uint256","name":"","type":"uint256"}],"name":"authors","outputs":[{"internalType":"address","name":"","type":"address"}],"stateMutability":"view","type":"function"},{"inputs":[{"internalType":"string","name":"cid","type":"string"}],"name":"createPost","outputs":[{"internalType":"uint256","name":"postId","type":"uint256"}],"stateMutability":"nonpayable","type":"function"},{"inputs":[{"internalType":"uint256","name":"postId","type":"uint256"}],"name":"getAuthor","outputs":[{"internalType":"address","name":"author","type":"address"}],"stateMutability":"view","type":"function"},{"inputs":[{"internalType":"uint256","name":"postId","type":"uint256"}],"name":"getPost","outputs":[{"internalType":"string","name":"cid","type":"string"}],"stateMutability":"view","type":"function"},{"inputs":[{"internalType":"uint256","name":"postId","type":"uint256"}],"name":"getPostData","outputs":[{"internalType":"string","name":"cid","type":"string"},{"internalType":"address","name":"author","type":"address"}],"stateMutability":"view","type":"function"},{"inputs":[],"name":"postCount","outputs":[{"internalType":"uint256","name":"","type":"uint256"}],"stateMutability":"view","type":"function"},{"inputs":[{"internalType":"uint256","name":"","type":"uint256"}],"name":"posts","outputs":[{"internalType":"string","name":"","type":"string"}],"stateMutability":"view","type":"function"}],"devdoc":{"details":"Contract for managing blog posts on-chain","kind":"dev","methods":{"createPost(string)":{"details":"Creates a new post with the given CID","params":{"cid":"The IPFS/Bundlr CID of the post content"},"returns":{"postId":"The ID of the created post"}},"getAuthor(uint256)":{"details":"Returns the author address for a given post ID","params":{"postId":"The post ID to query"},"returns":{"author":"The address of the post author"}},"getPost(uint256)":{"details":"Returns the post CID for a given post ID","params":{"postId":"The post ID to query"},"returns":{"cid":"The IPFS/Bundlr CID of the post"}},"getPostData(uint256)":{"details":"Returns the post data for a given post ID","params":{"postId":"The post ID to query"},"returns":{"author":"The address of the post author","cid":"The IPFS/Bundlr CID of the post"}}},"title":"PostManager","version":1},"evm":{"bytecode":{"linkReferences":{},"object":"60808060405234601557610500908161001b8239f35b600080fdfe6080604052600436101561001257600080fd5b60003560e01c80630b1e7f831461032c57806317906c2e146103705780633db804da1461029457806340731c241461032c5780634f8f0256146102c85780639e2b8488146102945763c7303c611461006957600080fd5b3461028f57602036600319011261028f5760043567ffffffffffffffff811161028f573660238201121561028f57806004013567ffffffffffffffff811161028f57366024828401011161028f57600054600019811461027957600101908160005581600052600160205260406000206000936100e6825461038e565b601f8111610234575b508390856020969385601f81116001146101a7577f8e40a51278abe2f4b410c0a96ff0bdd024b22666ca334062bf72afd596984bd694958391610199575b508660011b906000198860031b1c19161790555b8381526002875260408120336bffffffffffffffffffffffff60a01b82541617905584602460405193898552828a860152016040840137604085830101526040813395601f80199101168101030190a3604051908152f35b60249150840101353861012d565b8183528883209095601f198716845b8181106102145750967f8e40a51278abe2f4b410c0a96ff0bdd024b22666ca334062bf72afd596984bd69697106101f7575b5050600186811b019055610141565b840160240135600019600389901b60f8161c1916905538806101e8565b8287016024013584558998508a9750600190930192918b01918b016101b6565b82865260208620601f850160051c8101916020861061026f575b601f0160051c01905b81811061026457506100ef565b868155600101610257565b909150819061024e565b634e487b7160e01b600052601160045260246000fd5b600080fd5b3461028f57602036600319011261028f576004356000526002602052602060018060a01b0360406000205416604051908152f35b3461028f57602036600319011261028f57610322600435806000526001602052604060002090600052600260205261030d60018060a01b0360406000205416916103c8565b90604051928392604084526040840190610489565b9060208301520390f35b3461028f57602036600319011261028f57600435600052600160205261036c61035860406000206103c8565b604051918291602083526020830190610489565b0390f35b3461028f57600036600319011261028f576020600054604051908152f35b90600182811c921680156103be575b60208310146103a857565b634e487b7160e01b600052602260045260246000fd5b91607f169161039d565b90604051916000908054906103dc8261038e565b808652916001811690811561046b5750600114610430575b5050829003601f01601f1916820167ffffffffffffffff81118382101761041a57604052565b634e487b7160e01b600052604160045260246000fd5b90915060005260206000206000905b82821061045557506020915083010138806103f4565b600181602092548385890101520191019061043f565b9150506020925060ff191682850152151560051b83010138806103f4565b919082519283825260005b8481106104b5575050826000602080949584010152601f8019910116010190565b8060208092840101518282860101520161049456fea264697066735822122038781188049bc6a6d22608af4a109842b1a0837506d2af17c700347eb7c14e9c64736f6c634300081c0033","opcodes":"PUSH1 0x80 DUP1 PUSH1 0x40 MSTORE CALLVALUE PUSH1 0x15 JUMPI PUSH2 0x500 SWAP1 DUP2 PUSH2 0x1B DUP3 CODECOPY RETURN JUMPDEST PUSH1 0x0 DUP1 REVERT INVALID PUSH1 0x80 PUSH1 0x40 MSTORE PUSH1 0x4 CALLDATASIZE LT ISZERO PUSH2 0x12 JUMPI PUSH1 0x0 DUP1 REVERT JUMPDEST PUSH1 0x0 CALLDATALOAD PUSH1 0xE0 SHR DUP1 PUSH4 0xB1E7F83 EQ PUSH2 0x32C JUMPI DUP1 PUSH4 0x17906C2E EQ PUSH2 0x370 JUMPI DUP1 PUSH4 0x3DB804DA EQ PUSH2 0x294 JUMPI DUP1 PUSH4 0x40731C24 EQ PUSH2 0x32C JUMPI DUP1 PUSH4 0x4F8F0256 EQ PUSH2 0x2C8 JUMPI DUP1 PUSH4 0x9E2B8488 EQ PUSH2 0x294 JUMPI PUSH4 0xC7303C61 EQ PUSH2 0x69 JUMPI PUSH1 0x0 DUP1 REVERT JUMPDEST CALLVALUE PUSH2 0x28F JUMPI PUSH1 0x20 CALLDATASIZE PUSH1 0x3 NOT ADD SLT PUSH2 0x28F JUMPI PUSH1 0x4 CALLDATALOAD PUSH8 0xFFFFFFFFFFFFFFFF DUP2 GT PUSH2 0x28F JUMPI CALLDATASIZE PUSH1 0x23 DUP3 ADD SLT ISZERO PUSH2 0x28F JUMPI DUP1 PUSH1 0x4 ADD CALLDATALOAD PUSH8 0xFFFFFFFFFFFFFFFF DUP2 GT PUSH2 0x28F JUMPI CALLDATASIZE PUSH1 0x24 DUP3 DUP5 ADD ADD GT PUSH2 0x28F JUMPI PUSH1 0x0 SLOAD PUSH1 0x0 NOT DUP2 EQ PUSH2 0x279 JUMPI PUSH1 0x1 ADD SWAP1 DUP2 PUSH1 0x0 SSTORE DUP2 PUSH1 0x0 MSTORE PUSH1 0x1 PUSH1 0x20 MSTORE PUSH1 0x40 PUSH1 0x0 KECCAK256 PUSH1 0x0 SWAP4 PUSH2 0xE6 DUP3 SLOAD PUSH2 0x38E JUMP JUMPDEST PUSH1 0x1F DUP2 GT PUSH2 0x234 JUMPI JUMPDEST POP DUP4 SWAP1 DUP6 PUSH1 0x20 SWAP7 SWAP4 DUP6 PUSH1 0x1F DUP2 GT PUSH1 0x1 EQ PUSH2 0x1A7 JUMPI PUSH32 0x8E40A51278ABE2F4B410C0A96FF0BDD024B22666CA334062BF72AFD596984BD6 SWAP5 SWAP6 DUP4 SWAP2 PUSH2 0x199 JUMPI JUMPDEST POP DUP7 PUSH1 0x1 SHL SWAP1 PUSH1 0x0 NOT DUP9 PUSH1 0x3 SHL SHR NOT AND OR SWAP1 SSTORE JUMPDEST DUP4 DUP2 MSTORE PUSH1 0x2 DUP8 MSTORE PUSH1 0x40 DUP2 KECCAK256 CALLER PUSH12 0xFFFFFFFFFFFFFFFFFFFFFFFF PUSH1 0xA0 SHL DUP3 SLOAD AND OR SWAP1 SSTORE DUP5 PUSH1 0x24 PUSH1 0x40 MLOAD SWAP4 DUP10 DUP6 MSTORE DUP3 DUP11 DUP7 ADD MSTORE ADD PUSH1 0x40 DUP5 ADD CALLDATACOPY PUSH1 0x40 DUP6 DUP4 ADD ADD MSTORE PUSH1 0x40 DUP2 CALLER SWAP6 PUSH1 0x1F DUP1 NOT SWAP2 ADD AND DUP2 ADD SUB ADD SWAP1 LOG3 PUSH1 0x40 MLOAD SWAP1 DUP2 MSTORE RETURN JUMPDEST PUSH1 0x24 SWAP2 POP DUP5 ADD ADD CALLDATALOAD CODESIZE PUSH2 0x12D JUMP JUMPDEST DUP2 DUP4 MSTORE DUP9 DUP4 KECCAK256 SWAP1 SWAP6 PUSH1 0x1F NOT DUP8 AND DUP5 JUMPDEST DUP2 DUP2 LT PUSH2 0x214 JUMPI POP SWAP7 PUSH32 0x8E40A51278ABE2F4B410C0A96FF0BDD024B22666CA334062BF72AFD596984BD6 SWAP7 SWAP8 LT PUSH2 0x1F7 JUMPI JUMPDEST POP POP PUSH1 0x1 DUP7 DUP2 SHL ADD SWAP1 SSTORE PUSH2 0x141 JUMP JUMPDEST DUP5 ADD PUSH1 0x24 ADD CALLDATALOAD PUSH1 0x0 NOT PUSH1 0x3 DUP10 SWAP1 SHL PUSH1 0xF8 AND SHR NOT AND SWAP1 SSTORE CODESIZE DUP1 PUSH2 0x1E8 JUMP JUMPDEST DUP3 DUP8 ADD PUSH1 0x24 ADD CALLDATALOAD DUP5 SSTORE DUP10 SWAP9 POP DUP11 SWAP8 POP PUSH1 0x1 SWAP1 SWAP4 ADD SWAP3 SWAP2 DUP12 ADD SWAP2 DUP12 ADD PUSH2 0x1B6 JUMP JUMPDEST DUP3 DUP7 MSTORE PUSH1 0x20 DUP7 KECCAK256 PUSH1 0x1F DUP6 ADD PUSH1 0x5 SHR DUP2 ADD SWAP2 PUSH1 0x20 DUP7 LT PUSH2 0x26F JUMPI JUMPDEST PUSH1 0x1F ADD PUSH1 0x5 SHR ADD SWAP1 JUMPDEST DUP2 DUP2 LT PUSH2 0x264 JUMPI POP PUSH2 0xEF JUMP JUMPDEST DUP7 DUP2 SSTORE PUSH1 0x1 ADD PUSH2 0x257 JUMP JUMPDEST SWAP1 SWAP2 POP DUP2 SWAP1 PUSH2 0x24E JUMP JUMPDEST PUSH4 0x4E487B71 PUSH1 0xE0 SHL PUSH1 0x0 MSTORE PUSH1 0x11 PUSH1 0x4 MSTORE PUSH1 0x24 PUSH1 0x0 REVERT JUMPDEST PUSH1 0x0 DUP1 REVERT JUMPDEST CALLVALUE PUSH2 0x28F JUMPI PUSH1 0x20 CALLDATASIZE PUSH1 0x3 NOT ADD SLT PUSH2 0x28F JUMPI PUSH1 0x4 CALLDATALOAD PUSH1 0x0 MSTORE PUSH1 0x2 PUSH1 0x20 MSTORE PUSH1 0x20 PUSH1 0x1 DUP1 PUSH1 0xA0 SHL SUB PUSH1 0x40 PUSH1 0x0 KECCAK256 SLOAD AND PUSH1 0x40 MLOAD SWAP1 DUP2 MSTORE RETURN JUMPDEST CALLVALUE PUSH2 0x28F JUMPI PUSH1 0x20 CALLDATASIZE PUSH1 0x3 NOT ADD SLT PUSH2 0x28F JUMPI PUSH2 0x322 PUSH1 0x4 CALLDATALOAD DUP1 PUSH1 0x0 MSTORE PUSH1 0x1 PUSH1 0x20 MSTORE PUSH1 0x40 PUSH1 0x0 KECCAK256 SWAP1 PUSH1 0x0 MSTORE PUSH1 0x2 PUSH1 0x20 MSTORE PUSH2 0x30D PUSH1 0x1 DUP1 PUSH1 0xA0 SHL SUB PUSH1 0x40 PUSH1 0x0 KECCAK256 SLOAD AND SWAP2 PUSH2 0x3C8 JUMP JUMPDEST SWAP1 PUSH1 0x40 MLOAD SWAP3 DUP4 SWAP3 PUSH1 0x40 DUP5 MSTORE PUSH1 0x40 DUP5 ADD SWAP1 PUSH2 0x489 JUMP JUMPDEST SWAP1 PUSH1 0x20 DUP4 ADD MSTORE SUB SWAP1 RETURN JUMPDEST CALLVALUE PUSH2 0x28F JUMPI PUSH1 0x20 CALLDATASIZE PUSH1 0x3 NOT ADD SLT PUSH2 0x28F JUMPI PUSH1 0x4 CALLDATALOAD PUSH1 0x0 MSTORE PUSH1 0x1 PUSH1 0x20 MSTORE PUSH2 0x36C PUSH2 0x358 PUSH1 0x40 PUSH1 0x0 KECCAK256 PUSH2 0x3C8 JUMP JUMPDEST PUSH1 0x40 MLOAD SWAP2 DUP3 SWAP2 PUSH1 0x20 DUP4 MSTORE PUSH1 0x20 DUP4 ADD SWAP1 PUSH2 0x489 JUMP JUMPDEST SUB SWAP1 RETURN JUMPDEST CALLVALUE PUSH2 0x28F JUMPI PUSH1 0x0 CALLDATASIZE PUSH1 0x3 NOT ADD SLT PUSH2 0x28F JUMPI PUSH1 0x20 PUSH1 0x0 SLOAD PUSH1 0x40 MLOAD SWAP1 DUP2 MSTORE RETURN JUMPDEST SWAP1 PUSH1 0x1 DUP3 DUP2 SHR SWAP3 AND DUP1 ISZERO PUSH2 0x3BE JUMPI JUMPDEST PUSH1 0x20 DUP4 LT EQ PUSH2 0x3A8 JUMPI JUMP JUMPDEST PUSH4 0x4E487B71 PUSH1 0xE0 SHL PUSH1 0x0 MSTORE PUSH1 0x22 PUSH1 0x4 MSTORE PUSH1 0x24 PUSH1 0x0 REVERT JUMPDEST SWAP2 PUSH1 0x7F AND SWAP2 PUSH2 0x39D JUMP JUMPDEST SWAP1 PUSH1 0x40 MLOAD SWAP2 PUSH1 0x0 SWAP1 DUP1 SLOAD SWAP1 PUSH2 0x3DC DUP3 PUSH2 0x38E JUMP JUMPDEST DUP1 DUP7 MSTORE SWAP2 PUSH1 0x1 DUP2 AND SWAP1 DUP2 ISZERO PUSH2 0x46B JUMPI POP PUSH1 0x1 EQ PUSH2 0x430 JUMPI JUMPDEST POP POP DUP3 SWAP1 SUB PUSH1 0x1F ADD PUSH1 0x1F NOT AND DUP3 ADD PUSH8 0xFFFFFFFFFFFFFFFF DUP2 GT DUP4 DUP3 LT OR PUSH2 0x41A JUMPI PUSH1 0x40 MSTORE JUMP JUMPDEST PUSH4 0x4E487B71 PUSH1 0xE0 SHL PUSH1 0x0 MSTORE PUSH1 0x41 PUSH1 0x4 MSTORE PUSH1 0x24 PUSH1 0x0 REVERT JUMPDEST SWAP1 SWAP2 POP PUSH1 0x0 MSTORE PUSH1 0x20 PUSH1 0x0 KECCAK256 PUSH1 0x0 SWAP1 JUMPDEST DUP3 DUP3 LT PUSH2 0x455 JUMPI POP PUSH1 0x20 SWAP2 POP DUP4 ADD ADD CODESIZE DUP1 PUSH2 0x3F4 JUMP JUMPDEST PUSH1 0x1 DUP2 PUSH1 0x20 SWAP3 SLOAD DUP4 DUP6 DUP10 ADD ADD MSTORE ADD SWAP2 ADD SWAP1 PUSH2 0x43F JUMP JUMPDEST SWAP2 POP POP PUSH1 0x20 SWAP3 POP PUSH1 0xFF NOT AND DUP3 DUP6 ADD MSTORE ISZERO ISZERO PUSH1 0x5 SHL DUP4 ADD ADD CODESIZE DUP1 PUSH2 0x3F4 JUMP JUMPDEST SWAP2 SWAP1 DUP3 MLOAD SWAP3 DUP4 DUP3 MSTORE PUSH1 0x0 JUMPDEST DUP5 DUP2 LT PUSH2 0x4B5 JUMPI POP POP DUP3 PUSH1 0x0 PUSH1 0x20 DUP1 SWAP5 SWAP6 DUP5 ADD ADD MSTORE PUSH1 0x1F DUP1 NOT SWAP2 ADD AND ADD ADD SWAP1 JUMP JUMPDEST DUP1 PUSH1 0x20 DUP1 SWAP3 DUP5 ADD ADD MLOAD DUP3 DUP3 DUP7 ADD ADD MSTORE ADD PUSH2 0x494 JUMP INVALID LOG2 PUSH5 0x6970667358 0x22 SLT KECCAK256 CODESIZE PUSH25 0x1188049BC6A6D22608AF4A109842B1A0837506D2AF17C70034 PUSH31 0xB7C14E9C64736F6C634300081C003300000000000000000000000000000000 "},"gasEstimates":{"creation":{"codeDepositCost":"256000","executionCost":"300","totalCost":"256300"},"external":{"authors(uint256)":"2378","createPost(string)":"infinite","getAuthor(uint256)":"2444","getPost(uint256)":"infinite","getPostData(uint256)":"infinite","postCount()":"2272","posts(uint256)":"infinite"}},"methodIdentifiers":{"authors(uint256)":"3db804da","createPost(string)":"c7303c61","getAuthor(uint256)":"9e2b8488","getPost(uint256)":"40731c24","getPostData(uint256)":"4f8f0256","postCount()":"17906c2e","posts(uint256)":"0b1e7f83"}},"storageLayout":{"storage":[{"astId":5,"contract":"contracts/PostManager.sol:PostManager","label":"postCount","offset":0,"slot":"0","type":"t_uint256"},{"astId":10,"contract":"contracts/PostManager.sol:PostManager","label":"posts","offset":0,"slot":"1","type":"t_mapping(t_uint256,t_string_storage)"},{"astId":15,"contract":"contracts/PostManager.sol:PostManager","label":"authors","offset":0,"slot":"2","type":"t_mapping(t_uint256,t_address)"}],"types":{"t_address":{"encoding":"inplace","label":"address","numberOfBytes":"20"},"t_mapping(t_uint256,t_address)":{"encoding":"mapping","key":"t_uint256","label":"mapping(uint256 => address)","numberOfBytes":"32","value":"t_address"},"t_mapping(t_uint256,t_string_storage)":{"encoding":"mapping","key":"t_uint256","label":"mapping(uint256 => string)","numberOfBytes":"32","value":"t_string_storage"},"t_string_storage":{"encoding":"bytes","label":"string","numberOfBytes":"32"},"t_uint256":{"encoding":"inplace","label":"uint256","numberOfBytes":"32"}}},"userdoc":{"events":{"PostCreated(uint256,address,string)":{"notice":"Event emitted when a new post is created"}},"kind":"user","methods":{"authors(uint256)":{"notice":"Mapping from post ID to author address"},"postCount()":{"notice":"Auto-increment primary key for posts"},"posts(uint256)":{"notice":"Mapping from post ID to IPFS/Bundlr CID"}},"notice":"This contract stores IPFS/Bundlr CIDs and author addresses for blog posts","version":1}}}}